:100000000C9434000C9451000C9451000C94510049
:100010000C9451000C9451000C9451000C9451001C
:100020000C9451000C9451000C9451000C9451000C
:100030000C9451000C944E050C9451000C945100FA
:100040000C944C080C9451000C9451000C945100E9
:100050000C9451000C9451000C9451000C945100DC
:100060000C9451000C94510011241FBECFEFD4E02A
:10007000DEBFCDBF11E0A0E0B1E0EAE3F4E102C0F1
:1000800005900D92AC31B107D9F711E0ACE1B1E0C8
:1000900001C01D92A434B107E1F70E940C090C9431
:1000A0001B0A0C9400003C9A449880ED97E0FC01F8
:1000B0003197F1F70197F1F7449A3C98449A0895E3
:1000C000E4E1F1E040E050E061E070E0A82FB0E052
:1000D000CB01042E02C0880F991F0A94E2F790E02A
:1000E0008A239B233081892B59F025B1CB0102C093
:1000F000880F991F3A95E2F78095822385B909C048
:1001000025B1CB0102C0880F991F3A95E2F7282B41
:1001100025B94F5F5F4F319648305105C9F60895B4
:100120004115510529F041305105F1F440E01AC064
:1001300040E00BC090E09C013695322F2227379586
:10014000279595958795822B4F5F461798F30895CD
:1001500090E09C01220F232F221F330B880F991F41
:10016000822B4F5F4617A0F3089583309105D9F095
:10017000843091054CF48130910589F082309105ED
:1001800084F4892B51F008958530910591F08530E4
:10019000910564F00697A1F410C05E9A08955D9AE7
:1001A00008955F9A08958BB1806605C08BB1806A0F
:1001B00002C08BB1806C8BB908958BB1806E8BB906
:1001C000089583309105D9F0843091054CF4813045
:1001D000910589F08230910584F4892B51F00895BE
:1001E0008530910591F08530910564F00697A1F472
:1001F00010C05E9808955D9808955F9808958BB13A
:100200008F7905C08BB18F7502C08BB18F738BB99D
:1002100008958BB18F718BB908955F926F927F9221
:100220008F929F92AF92BF92CF92DF92EF92FF9206
:100230000F931F93CF93DF933C01562E4A01590130
:10024000C02EDD24C0EDD7E030C000E07301E10E28
:10025000F11CC4010E94B500F70180810E9460007A
:10026000CE010197F1F7CE010197F1F7C4010E9489
:10027000E100C5010E94B500F701808164E040E023
:1002800050E00E9490000E946000CE010197F1F7BB
:10029000CE010197F1F7C5010E94E1000F5F09311E
:1002A000C1F61F5F151588F2D394DC1410F410E02A
:1002B000F9CFDF91CF911F910F91FF90EF90DF90D9
:1002C000CF90BF90AF909F908F907F906F905F90F6
:1002D00008956F927F928F929F92AF92BF92CF922A
:1002E000DF92EF92FF920F931F93CF93DF933C0126
:1002F000862E6A01E901902ECA010E94B50020975E
:1003000049F0219709F043C000E0A0EDAA2EA7E034
:10031000BA2E38C000E0F0EDAF2EF7E0BF2E14C0CB
:1003200088810E94600080E090E004C0F501319770
:10033000F1F701968E159F05C8F30E9453001F5FC9
:100340002196181568F30F5F091508F5E30110E011
:10035000F8CF888164E040E050E00E9490000E9465
:10036000600080E090E004C0F5013197F1F701965C
:100370008E159F05C8F30E9453001F5F2196181524
:1003800040F30F5F091518F4E30110E0F8CFC60140
:100390000E94E100DF91CF911F910F91FF90EF90AC
:1003A000DF90CF90BF90AF909F908F907F906F9095
:1003B0000895DF92EF92FF920F931F93CF93DF93F5
:1003C000082FEB0186E090E00E94B50010E0B0ED50
:1003D000EB2EB7E0FB2EDD24DA941BC015B880E0CD
:1003E00090E004C0F7013197F1F701968C179D0753
:1003F000C8F30E945300D5B880E090E004C0F70134
:100400003197F1F701968C179D07C8F30E945300AE
:100410001F5F101718F386E090E00E94E100DF9163
:10042000CF911F910F91FF90EF90DF900895DF9291
:10043000EF92FF920F931F93CF93DF93082FEB015F
:1004400082E090E00E94B50010E080EDE82E87E0A9
:10045000F82EDD24DA941BC015B880E090E004C0CB
:10046000F7013197F1F701968C179D07C8F30E94A9
:100470005300D5B880E090E004C0F7013197F1F760
:1004800001968C179D07C8F30E9453001F5F101739
:1004900018F382E090E00E94E100DF91CF911F917C
:1004A0000F91FF90EF90DF900895DF92EF92FF920F
:1004B0000F931F93CF93DF93082FEB0181E090E020
:1004C0000E94B50010E090EDE92E97E0F92EDD24B2
:1004D000DA941BC015B880E090E004C0F7013197B2
:1004E000F1F701968C179D07C8F30E945300D5B809
:1004F00080E090E004C0F7013197F1F701968C1786
:100500009D07C8F30E9453001F5F101718F381E086
:1005100090E00E94E100DF91CF911F910F91FF9039
:10052000EF90DF900895DF92EF92FF920F931F9369
:10053000CF93DF93082FEB0180E090E00E94B5009D
:1005400010E020EDE22E27E0F22EDD24DA941BC02D
:1005500015B880E090E004C0F7013197F1F70196FB
:100560008C179D07C8F30E945300D5B880E090E037
:1005700004C0F7013197F1F701968C179D07C8F376
:100580000E9453001F5F101718F380E090E00E9454
:10059000E100DF91CF911F910F91FF90EF90DF90DD
:1005A00008959F92AF92BF92CF92DF92EF92FF9207
:1005B0000F931F93CF93DF93082F7B0186E090E08A
:1005C0000E94B50010E099249A9441E0A42EB12C29
:1005D00030EDC32E37E0D32E23C0C8E0D0E095B86D
:1005E00085B1FE01E770F070EC5EFE4F9501008072
:1005F00002C0220F331F0A94E2F72095282325B961
:1006000080E090E004C0F6013197F1F701968E1575
:100610009F05C8F30E9453002197CC2301F71F5F69
:100620001017D8F286E090E00E94E100DF91CF91B0
:100630001F910F91FF90EF90DF90CF90BF90AF9000
:100640009F9008959F92AF92BF92CF92DF92EF92C8
:10065000FF920F931F93CF93DF93082F7B0186E0C8
:1006600090E00E94B50010E099249A9461E0A62ED3
:10067000B12C50EDC52E57E0D52E1EC095B825B132
:10068000C501088002C0880F991F0A94E2F780957F
:10069000822385B980E090E004C0F6013197F1F73C
:1006A00001968E159F05C8F30E945300219681E0A4
:1006B000CC31D80719F71F5F101718F4C4E1D1E047
:1006C000DDCF86E090E00E94E100DF91CF911F91A5
:1006D0000F91FF90EF90DF90CF90BF90AF909F90E1
:1006E00008957F928F929F92AF92BF92CF92DF92A6
:1006F000EF92FF920F931F93CF93DF935C01EB0177
:10070000042F69010E94B500209771F0219709F02C
:1007100072C010E077247A94A1E0EA2EF12CF0ED7B
:100720008F2EF7E09F2E65C010E077247A94E1E0E9
:10073000EE2EF12C70ED872E77E0972E26C075B83F
:1007400085B197010C8002C0220F331F0A94E2F793
:10075000A701088002C0440F551F0A94E2F7242B1A
:100760002095282325B980E090E004C0F40131975A
:10077000F1F701968C159D05C8F30E945300219650
:1007800081E0C831D807D9F61F5F1017A0F5C4E182
:10079000D1E0D5CFC8E0D0E075B845B1FE01E77033
:1007A000F070EC5EFE4FC701008002C0880F991FF9
:1007B0000A94E2F7FE01E05FFE4F9701008002C05D
:1007C000220F331F0A94E2F7822B8095842385B988
:1007D00080E090E004C0F4013197F1F701968C15A8
:1007E0009D05C8F30E9453002197C430D105A1F69E
:1007F0001F5F101778F2C5010E94E100DF91CF91D1
:100800001F910F91FF90EF90DF90CF90BF90AF902E
:100810009F908F907F900895AF92BF92CF92DF927A
:10082000EF92FF920F931F93CF93DF93A82ECB01EC
:1008300068E671E00E943209382F6CE370E00E9494
:100840003209162F622F70E08FEF90E0689F6001F1
:10085000699FD00C789FD00C1124841B9109869F2E
:10086000F001879FF00D969FF00D1124249F7001D9
:10087000112484EC9FEF189F802D1124830F282FC3
:1008800030E0C70168E770E00E943209269FA001AE
:10089000279F500D369F500D1124EA01CE0FDF1F08
:1008A000D601A41BB50B112329F4BA2EDB2ECC2EB6
:1008B000ED2E13C0C701969587959C012E0F3F1F03
:1008C000240F351FB601681B790B641B750B1130A3
:1008D00039F4B62ED72EC22EE32E0E2FFF2E21C0B6
:1008E000123039F4BE2EDF2ECA2EEB2E0C2FFD2E29
:1008F00018C0133039F4BE2EDF2EC62EE72E022F7D
:10090000F32E0FC0143039F0B22ED32ECE2EEF2E90
:10091000062FF72E06C0BC2EDD2ECE2EEF2E0A2F70
:10092000FB2E6091380181E09EEF70E00E94320959
:10093000462F172FEA2DF0E09F01245E3E4F8B2DAE
:100940009D2D0E943209D9016C939F012C5D3E4F71
:100950008C2D9E2D642F712F0E943209D9016C932A
:10096000E45DFE4F802F9F2D642F712F0E9432096E
:100970006083DF91CF911F910F91FF90EF90DF90F7
:10098000CF90BF90AF900895FF920F931F93CF9396
:10099000DF93EC01F62E042F10E0812FBE014F2DC6
:1009A000202F0E940C041F5F1830B9F7DF91CF9100
:1009B0001F910F91FF900895CF92DF92EF92FF92D7
:1009C0000F931F93DF93CF930F92CDB7DEB70091B4
:1009D000390110913A01E82EFF24680190E0892F37
:1009E000B6014FEF2FEF99830E940C0499819F5F0E
:1009F000CE0CDF1C983099F70F5F1F4F10933A0110
:100A0000009339010F90CF91DF911F910F91FF90CB
:100A1000EF90DF90CF900895282F882319F0813030
:100A200089F519C0809181008D7F8093810080912C
:100A3000810085608093810080E390E09093350190
:100A4000809334011092360180E4809337018FE364
:100A50008093380117C0809181008C7F8093810042
:100A60008091810084608093810085E390E0909381
:100A70003501809334012093360182E08093370161
:100A80002093380180918100877E8093810080913E
:100A900080008C7F80938000789408951F920F923D
:100AA0000FB60F9211242F933F934F935F936F9341
:100AB0007F938F939F93AF93BF93EF93FF93809117
:100AC00034019091350180959095909385008093A5
:100AD000840080913601882321F0813009F06DC0B7
:100AE00039C030E0AFEF61E070E02FC040E050E08F
:100AF000A5B98BB18F718BB925B1FA01EC5EFE4FB0
:100B0000CB01008002C0880F991F0A94E2F78095FC
:100B1000822385B9FA01E45EFE4F8081381708F41C
:100B20005E9AFA01EC5DFE4F8081381708F45D9AF9
:100B3000FA01E45DFE4F8081381708F45F9A4F5F39
:100B40005F4F48305105A1F63F5F8091380138175B
:100B500068F233C040E050E03FEFA1E0B0E060E970
:100B600071E035B98BB18F718BB925B1FA01EC5EAB
:100B7000FE4FCD01008002C0880F991F0A94E2F752
:100B80008095822385B9FA01E45EFE4F8081811150
:100B90005E9AFA01EC5DFE4F808181115D9AFA0147
:100BA000E45DFE4F808181115F9ACB010197F1F7DF
:100BB0004F5F5F4F48305105A1F68FEF85B9FF9128
:100BC000EF91BF91AF919F918F917F916F915F91C5
:100BD0004F913F912F910F900FBE0F901F9018953E
:100BE000CF93DF93C0E0D0E0CE016FEF4FEF0E94D4
:100BF000C40465E070E080E090E00E94A0082396C5
:100C000081E0C836D80781F7DF91CF9108951F930F
:100C100010E019C080E090E0FC01E45EFE4F10831C
:100C2000FC01EC5DFE4F1083FC01E45DFE4F108380
:100C300001968830910581F765E070E080E090E0F2
:100C40000E94A0081F5F80913801811718F710914A
:100C5000380119C080E090E0FC01E45EFE4F108393
:100C6000FC01EC5DFE4F1083FC01E45DFE4F108340
:100C700001968830910581F765E070E080E090E0B2
:100C80000E94A00811501F3F29F71F910895DF927D
:100C9000EF92FF920F931F9380E090E020ED37E0FA
:100CA000F9013197F1F7019643E0883E9407C1F7C7
:100CB0000E94530080E00E940C0580916F008160CB
:100CC00080936F00809134019091350180959095CB
:100CD00090938500809384000E9407060E94070677
:100CE0000E9407060E94F0050E94F0050E94F00590
:100CF0000E94F00500E010E08DE20E94DC040F5F2E
:100D00001F4F83E0083E1807B9F700E010E0FF240A
:100D1000FA9433C0FC01E45EFE4FF082FC01EC5D0E
:100D2000FE4FF082FC01E45DFE4FF08201968830B8
:100D3000910581F764E170E080E090E00E94A008F6
:100D400080E090E0FC01E45EFE4F1082FC01EC5D6F
:100D5000FE4F1082FC01E45DFE4F10820196883048
:100D6000910581F764E170E080E090E00E94A008C6
:100D70000F5F1F4F0431110519F080E090E0CACFDA
:100D800080916F008E7F80936F0081E00E940C0540
:100D900080916F00816080936F0080913401909109
:100DA000350180959095909385008093840011E0A3
:100DB00010931C011092240110922C0168EE73E034
:100DC00080E090E00E94A00810931D01109325017F
:100DD00010922D0168EE73E080E090E00E94A00880
:100DE00010921E011093260110922E0168EE73E0FE
:100DF00080E090E00E94A00810921F01109327014C
:100E000010932F0168EE73E080E090E00E94A0084C
:100E100010922001109228011093300168EE73E0C7
:100E200080E090E00E94A008109321011092290117
:100E30001093310168EE73E080E090E00E94A0081A
:100E40001093220110932A011093320168EE73E08F
:100E500080E090E00E94A0081093230110932B01E2
:100E60001093330168E873E180E090E00E94A008ED
:100E700000E010E0DD24DA94BAE5EB2EADE2FA2EC4
:100E800033C0FC01E45EFE4FD082FC01EC5DFE4FFE
:100E9000E082FC01E45DFE4FF0820196883091050E
:100EA00081F764E170E080E090E00E94A00880E0BB
:100EB00090E0FC01E45EFE4F1082FC01EC5DFE4F11
:100EC0001082FC01E45DFE4F10820196883091058E
:100ED00081F764E170E080E090E00E94A0080F5F7D
:100EE0001F4F0431110519F080E090E0CACF8091C6
:100EF0006F008E7F80936F0080E090E020ED37E000
:100F0000F9013197F1F7019649E0843C9407C1F764
:100F10000E9453008AE064E170E00E9493028AE03C
:100F200064E170E00E9455028AE064E170E00E9492
:100F300017028AE064E170E00E94D90184E091E048
:100F400068E040E050E020E030E00AE0F0E5EF2E1D
:100F5000F12C0E9469018CE091E068E043E050E0F0
:100F600020E030E00E9469018AE064E170E00E94C4
:100F700022038AE064E170E00E94D10282E090E006
:100F800061E070E04FE02BE430E00E94710381E00B
:100F900090E060E070E04FE02BE430E00E947103ED
:100FA00080E090E061E070E04FE02BE430E00E94F0
:100FB000710383E090E060E070E04FE02BE430E00C
:100FC0000E94710384E090E061E070E04FE02BE468
:100FD00030E00E94710385E090E060E070E04FE057
:100FE0002BE430E00E94710386E090E061E070E065
:100FF0004FE02BE430E00E94710384E091E068E070
:1010000040E050E021E030E0E2E3EE2EF12C0E94DF
:101010000D0184E091E064E040E050E025E030E044
:101020007AE0E72EF12C0E940D0184E091E068E067
:1010300043E050E022E030E00E940D011F910F914B
:10104000FF90EF90DF90089584B18FEF84B985B958
:101050008AB1806E8AB98BB18F718BB987B1837C6D
:1010600087B9449A8BE292E00E94040980E00E94D2
:101070000C0580E090E0FC01E45EFE4F1082FC0174
:10108000EC5DFE4F1082FC01E45DFE4F1082019684
:101090008830910581F708951F920F920FB60F9235
:1010A00011242F933F934F935F936F937F938F936D
:1010B0009F93AF93BF9320913F01309140014091A6
:1010C00041015091420170914301DA01C901029638
:1010D000A11DB11D672F6A5F6D3730F06D57DA01C2
:1010E000C9010396A11DB11D6093430180933F0187
:1010F00090934001A0934101B093420180913B0144
:1011000090913C01A0913D01B0913E010196A11D3D
:10111000B11D80933B0190933C01A0933D01B0939E
:101120003E01BF91AF919F918F917F916F915F91A0
:101130004F913F912F910F900FBE0F901F901895D8
:10114000EF92FF920F931F937B018C018FB7F8945E
:1011500040913F01509140016091410170914201E5
:101160008FBF2FB7F89480913F0190914001A091DB
:101170004101B09142012FBF841B950BA60BB70B09
:10118000E816F9060A071B0760F71F910F91FF90F9
:10119000EF900895789484B5826084BD84B58160B1
:1011A00084BD85B5826085BD85B5816085BDEEE66F
:1011B000F0E0808181608083E1E8F0E080818260FE
:1011C0008083808181608083E0E8F0E080818160BD
:1011D0008083E1EBF0E0808184608083E0EBF0E0ED
:1011E000808181608083EAE7F0E080818460808391
:1011F000808182608083808181608083808180683B
:1012000080831092C1000895009729F0BC0180E00E
:1012100090E00E94DB0908950E94CA080E942408F9
:101220000E944706FDCF629FD001739FF001829F0D
:10123000E00DF11D649FE00DF11D929FF00D839F65
:10124000F00D749FF00D659FF00D9927729FB00D02
:10125000E11DF91F639FB00DE11DF91FBD01CF0115
:1012600011240895AA1BBB1B51E107C0AA1FBB1F75
:10127000A617B70710F0A61BB70B881F991F5A9522
:10128000A9F780959095BC01CD01089597FB092E93
:1012900005260ED057FD04D014D00AD0001C38F417
:1012A00050954095309521953F4F4F4F5F4F089592
:1012B000F6F790958095709561957F4F8F4F9F4F72
:1012C0000895A1E21A2EAA1BBB1BFD010DC0AA1F87
:1012D000BB1FEE1FFF1FA217B307E407F50720F09F
:1012E000A21BB30BE40BF50B661F771F881F991F1A
:1012F0001A9469F760957095809590959B01AC0163
:10130000BD01CF010895A0E0B0E0E9E8F9E00C9458
:10131000EC09EC01A880B980CA80DB80A114B1047B
:10132000C104D10441F484E2A82E89EDB82E8BE5E6
:10133000C82E87E0D82EC601B5012DE133EF41E07C
:1013400050E00E94460927EA31E440E050E00E9464
:1013500013097B018C01C601B5012DE133EF41E09A
:1013600050E00E944609CA01B9012CEE34EF4FEF5C
:101370005FEF0E9413096E0D7F1D801F911F97FF65
:1013800004C06150704080409048688379838A83AC
:101390009B839B01AC015F77B901CA01CDB7DEB772
:1013A000EAE00C94080A0E948309089580E091E025
:1013B0000E94830908956093000170930101809356
:1013C00002019093030108952F923F924F925F92F2
:1013D0006F927F928F929F92AF92BF92CF92DF9245
:1013E000EF92FF920F931F93CF93DF93CDB7DEB7AA
:1013F000CA1BDB0B0FB6F894DEBF0FBECDBF09943E
:101400002A88398848885F846E847D848C849B8494
:10141000AA84B984C884DF80EE80FD800C811B81A2
:10142000AA81B981CE0FD11D0FB6F894DEBF0FBED1
:0A143000CDBFED010895F894FFCF41
:10143A000100000040A0110A040A11A0C7C6446CAA
:0C144A007C6C44C6000102030405060788
:103800000C94341C0C94511C0C94511C0C94511CA1
:103810000C94511C0C94511C0C94511C0C94511C74
:103820000C94511C0C94511C0C94511C0C94511C64
:103830000C94511C0C94511C0C94511C0C94511C54
:103840000C94511C0C94511C0C94511C0C94511C44
:103850000C94511C0C94511C0C94511C0C94511C34
:103860000C94511C0C94511C11241FBECFEFD4E0BA
:10387000DEBFCDBF11E0A0E0B1E0EEEAFFE302C0A1
:1038800005900D92A230B107D9F712E0A2E0B1E0A5
:1038900001C01D92AD30B107E1F70E94331D0C94B9
:1038A000D51F0C94001C982F9595959595959595F9
:1038B000905D8F708A307CF0282F295A8091C0004B
:1038C00085FFFCCF9093C6008091C00085FFFCCFA0
:1038D0002093C6000895282F205DF0CF982F809167
:1038E000C00085FFFCCF9093C6000895EF92FF9231
:1038F0000F931F93EE24FF2487018091C00087FD62
:1039000017C00894E11CF11C011D111D81E2E8168D
:1039100081EAF80687E0080780E0180770F3E09175
:103920000401F091050109958091C00087FFE9CF5E
:103930008091C6001F910F91FF90EF9008950E9413
:10394000761C982F8091C00085FFFCCF9093C60015
:1039500091362CF490330CF09053892F089597559D
:10396000892F08951F930E949F1C182F0E949F1C4F
:103970001295107F810F1F9108951F93182F882390
:1039800021F00E94761C1150E1F71F9108951F93BA
:10399000182F0E94761C803249F0809103018F5FBE
:1039A000809303018530C1F01F9108958091C0007C
:1039B00085FFFCCF84E18093C6008091C00085FF25
:1039C000FCCF1093C6008091C00085FFFCCF80E142
:1039D0008093C6001F910895E0910401F0910501C4
:1039E00009951F9108950E94761C803241F08091C4
:1039F00003018F5F80930301853081F008958091EA
:103A0000C00085FFFCCF84E18093C6008091C00098
:103A100085FFFCCF80E18093C6000895E09104010A
:103A2000F09105010995089510920A028823D1F0BA
:103A300090E048EC50E02D9A28EE33E0FA013197FF
:103A4000F1F721503040D1F72D9828EE33E0FA01FC
:103A50003197F1F721503040D1F79F5F981758F315
:103A600080930A0208953F924F925F926F927F92E5
:103A70008F929F92AF92BF92CF92DF92EF92FF927E
:103A80000F931F93CF93DF9394B714BE8091600080
:103A90008861809360001092600091FF0CC289E100
:103AA0008093C4001092C50088E18093C10086E035
:103AB0008093C2005098589A259A81E00E94141D64
:103AC00044E1F42E3EE1E32E24E9D22E96E0C92E05
:103AD00080E1B82EAA24A39401E4902E16E5812E4D
:103AE000B2E57B2EA0E26A2EF9E45F2EE3E54E2ECE
:103AF00070E5372E0E94761C8033B9F18133C1F115
:103B0000803409F470C0813409F477C0823409F438
:103B100086C0853409F489C0803539F1823529F1B0
:103B2000813509F4AFC1853509F485C0863509F4BE
:103B30008DC0843609F435C1843709F4C1C0853796
:103B400009F490C0863709F466C0809103018F5F45
:103B500080930301853071F6E0910401F091050135
:103B600009950E94761C803349F60E94F31CC2CF4F
:103B70000E94761C803249F78091C00085FFFCCFFF
:103B8000F092C6008091C00085FFFCCF9092C600E5
:103B90008091C00085FFFCCF8092C6008091C0005C
:103BA00085FFFCCF7092C6008091C00085FFFCCFDE
:103BB0006092C6008091C00085FFFCCF5092C60085
:103BC0008091C00085FFFCCF4092C6008091C0006C
:103BD00085FFFCCF3092C6008091C00085FFFCCFEE
:103BE000B092C60087CF0E94761C863808F4BDCFFD
:103BF0000E94761C0E94F31C7DCF0E94761C8038A8
:103C000009F45AC0813809F453C0823809F440C11C
:103C1000883909F449C080E00E94C71C6BCF84E159
:103C20000E94BD1C0E94F31C65CF85E00E94BD1C54
:103C30000E94F31C5FCF0E94761C809306010E94B5
:103C4000761C809307010E94F31C54CF0E94761CBF
:103C5000803309F421C183E00E94BD1C80E00E94F2
:103C6000C71C48CF0E94761C803209F06ECF80912D
:103C7000C00085FFFCCFF092C6008091C00085FF98
:103C8000FCCFE092C6008091C00085FFFCCFD092AF
:103C9000C6008091C00085FFFCCFC092C600809115
:103CA000C00085FFFCCF9CCF83E00E94C71C22CFC1
:103CB00081E00E94C71C1ECF82E00E94C71C1ACF61
:103CC0000E94761C809309020E94761C8093080251
:103CD0008091060190910701880F991F9093070129
:103CE000809306010E94761C853409F4C5C080913A
:103CF0000C028E7F80930C020E94761C803209F0A9
:103D0000F9CE8091C00085FFFCCFF092C600609193
:103D10000802709109026115710591F140E050E0CF
:103D200080910C02A82FA170B82FB27010C0BB23D5
:103D300061F1E0910601F09107013196F0930701DE
:103D4000E09306014F5F5F4F46175707C8F4AA2359
:103D500071F3F999FECF209106013091070132BD30
:103D600021BDF89A90B58091C00085FFFCCF90935B
:103D7000C6002F5F3F4F3093070120930601E2CF2B
:103D80008091C00085FFFCCF2BCFE0910601F09120
:103D9000070194918091C00085FFFCCF9093C600ED
:103DA000CCCF0E94761C809309020E94761C8093DF
:103DB000080280910C028E7F80930C020E94761C78
:103DC000853429F480910C02816080930C028091EB
:103DD000080290910902892B89F000E010E00E940E
:103DE000761CF801E85FFE4F80830F5F1F4F8091C4
:103DF0000802909109020817190788F30E94761C9F
:103E0000803209F0A2CE80910C0280FF62C0409106
:103E1000060150910701440F551F5093070140932D
:103E20000601609108027091090261157105C9F0DF
:103E3000E8E0F1E09A01DB01AE0FBF1FF999FECF78
:103E400032BD21BD819180BDFA9AF99A2F5F3F4F13
:103E5000EA17FB0799F7460F571F50930701409346
:103E600006018091C00085FFFCCFF092C6008091D2
:103E7000C00085FFFCCFB4CE80910C02816080939E
:103E80000C023ACF0E94F31C88E080936000FFCFC1
:103E900080E10E94C71C2ECE0E94761C0E94761CD8
:103EA000182F0E94761C112381F0113051F086E00A
:103EB0000E94C71C1FCEE0910401F09105010995F5
:103EC000EECD84E90E94C71C15CE8EE10E94C71C6E
:103ED00011CE809107018823880F880B8A21809357
:103EE0000B028091060190910701880F991F909312
:103EF0000701809306018091080280FF09C080912C
:103F00000802909109020196909309028093080299
:103F1000F894F999FECF1127E0910601F09107017D
:103F2000C8E0D1E08091080290910902103091F42C
:103F30000091570001700130D9F303E0009357005E
:103F4000E8950091570001700130D9F301E1009329
:103F50005700E895099019900091570001700130C1
:103F6000D9F301E000935700E8951395103498F0C9
:103F700011270091570001700130D9F305E000933B
:103F80005700E8950091570001700130D9F301E125
:103F900000935700E8953296029709F0C7CF10308A
:0E3FA00011F00296E5CF11245CCFF894FFCF0C
:023FAE00800091
:0400000300003800C1
:00000001FF
