:100000000C9435000C945D000C945D000C945D0024
:100010000C945D000C945D000C945D000C945D00EC
:100020000C945D000C945D000C945D000C945D00DC
:100030000C945D000C940E070C945D000C945D0014
:100040000C94D50A0C945D000C945D000C945D003A
:100050000C945D000C945D000C945D000C945D00AC
:100060000C94F0000C945D00AC0011241FBECFEF87
:10007000D4E0DEBFCDBF11E0A0E0B1E0ECEFF9E1EC
:1000800002C005900D92AC31B107D9F711E0ACE197
:10009000B1E001C01D92A13EB107E1F710E0CAE650
:1000A000D0E004C02297FE010E94600CC836D10740
:1000B000C9F70E94E70B0C94FC0C0C940000809193
:1000C0003D0190913C01891B089590913C018091E4
:1000D0003D01981710F080E00895E92FF0E0E45E0C
:1000E000FE4F80819F5F90933C010895AC01209169
:1000F00042013091430121153105E1F090913C011D
:1001000080913D019817B0F090E008C0FA01EA0F25
:10011000FB1F8081A45EBE4F8C939F5FA92FB0E030
:10012000A617B7079CF310923C0160933D01CB01E9
:10013000F90109950895E0914001F091410130974E
:1001400029F010923E0110923F0109950895709395
:100150004301609342010895089510923C0110926A
:100160003D0110923E0110923F010E94CF00089580
:100170000F931F938C01862F0E94E2008BE990E081
:100180000E94EB0086E790E00E94E600C8010E9412
:10019000AD001F910F9108950E94B800089510922C
:1001A0004501449A459AE9EBF0E080818E7F808397
:1001B00080818D7F808388E48093B80085E480937C
:1001C000BC000895880F8093BA00089590934A0167
:1001D00080934901089590934801809347010895C1
:1001E0001F920F920FB60F9211242F933F934F93AC
:1001F0005F936F937F938F939F93AF93BF93EF938F
:10020000FF938091B90090E0887F907080369105CF
:1002100009F4DCC081369105CCF58832910509F4EA
:100220007BC089329105B4F48031910509F46FC027
:10023000813191053CF4009709F431C1089709F028
:1002400039C165C08831910509F466C0809709F00D
:1002500031C17DC08034910509F49FC0813491057E
:1002600044F48033910509F47DC0C89709F022C198
:1002700084C08035910509F484C08835910509F45E
:1002800091C08834910509F015C198C0883991054D
:1002900009F4FDC089399105ECF48837910509F41A
:1002A00095C0893791054CF48836910509F48EC0C4
:1002B0008037910509F0FEC089C08838910509F49E
:1002C000E6C08039910509F487C08038910509F0AE
:1002D000F1C082C0803B910509F4B0C0813B91051B
:1002E0004CF4803A910509F489C0883A910509F0E7
:1002F000E1C0A4C0803C910509F4CDC0883C9105C3
:1003000009F4C9C0883B910509F0D4C0ACC0809104
:1003100046018093BB00B9C090916B0180916C0144
:10032000981768F490916B01E92FF0E0E55BFE4FC0
:1003300080818093BB009F5F90936B01A6C085ED89
:100340008093BC008091BC0084FDFCCFB1C080E2F2
:100350008093B00185ED8093BC008091BC0084FD4A
:10036000FCCFA6C080E38093B00185ED8093BC00F4
:100370008091BC0084FDFCCF9BC088E38093B001DA
:100380008AC080916B019091BB00E82FF0E0E55BA3
:10039000FE4F90838F5F80936B0190916B018091F2
:1003A0006C0171C080916B019091BB00E82FF0E06F
:1003B000E55BFE4F90838F5F80936B0185ED8093AB
:1003C000BC008091BC0084FDFCCF72C083E08093B0
:1003D00045011092AF0159C08091AF01803208F001
:1003E00056C08091AF019091BB00E82FF0E0E1573B
:1003F000FE4F90838F5F8093AF0147C08091AF0124
:10040000803230F4E091AF01F0E0E157FE4F10820E
:1004100085ED8093BC008091BC0084FDFCCF1092E0
:1004200045016091AF01E0914901F0914A018FE8E7
:1004300091E070E009951092AF012DC084E08093A7
:10044000450110928D0110928E01E0914701F091CB
:100450004801099580918E01882329F481E08093D9
:100460008E0110926D0190918D01E92FF0E0E3591A
:10047000FE4F80818093BB009F5F90938D01909190
:100480008D0180918E01981710F485EC01C085E8EC
:100490008093BC000FC085EC8093BC0009C0109213
:1004A000B00185ED8093BC008091BC0084FDFCCF41
:1004B00010924501FF91EF91BF91AF919F918F9164
:1004C0007F916F915F914F913F912F910F900FBE50
:1004D0000F901F901895E4E1F1E040E050E061E0FA
:1004E00070E0A82FB0E0CB01042E02C0880F991F46
:1004F0000A94E2F790E08A239B233081892B59F0FC
:1005000025B1CB0102C0880F991F3A95E2F780957B
:10051000822385B909C025B1CB0102C0880F991F7C
:100520003A95E2F7282B25B94F5F5F4F3196483057
:100530005105C9F608954115510529F0413051057D
:10054000F1F440E01AC040E00BC090E09C01369509
:10055000322F22273795279595958795822B4F5FC8
:10056000461798F3089590E09C01220F232F221F35
:10057000330B880F991F822B4F5F4617A0F3089506
:1005800083309105E1F0843091054CF48130910580
:1005900091F0823091058CF4892B01F1089585301A
:1005A000910591F08530910564F08630910579F0E0
:1005B0000797B9F40FC05D9A08955E9A08955F9AFF
:1005C00008958BB1806608C08BB1806C05C08BB17B
:1005D000806A02C08BB1806E8BB908958BB18F7128
:1005E0008BB9089583309105E1F0843091054CF486
:1005F0008130910591F0823091058CF4892B01F1C5
:1006000008958530910591F08530910564F086302C
:10061000910579F00797B9F40FC05D9808955E9839
:1006200008955F9808958BB18F7908C08BB18F734F
:1006300005C08BB18F7502C08BB18F718BB90895D6
:100640008BB1806E8BB908955F926F927F928F927B
:100650009F92AF92BF92CF92DF92EF92FF920F9351
:100660001F93CF93DF933C01562E4A015901C02EB0
:10067000DD24C0EDD7E030C000E07301E10EF11CD5
:10068000C4010E94C002F70180810E946B02CE016A
:100690000197F1F7CE010197F1F7C4010E94F20230
:1006A000C5010E94C002F701808164E040E050E093
:1006B0000E949B020E946B02CE010197F1F7CE01CE
:1006C0000197F1F7C5010E94F2020F5F0931C1F6EF
:1006D0001F5F151588F2D394DC1410F410E0F9CFE5
:1006E000DF91CF911F910F91FF90EF90DF90CF900E
:1006F000BF90AF909F908F907F906F905F90089584
:100700006F927F928F929F92AF92BF92CF92DF9221
:10071000EF92FF920F931F93CF93DF933C01862EAE
:100720006A01E901902ECA010E94C002209749F097
:10073000219709F043C000E0A0EDAA2EA7E0BA2E51
:1007400038C000E0F0EDAF2EF7E0BF2E14C0888176
:100750000E946B023499FECF80E090E004C0F50166
:100760003197F1F701968E159F05C8F31F5F21960B
:10077000181568F30F5F091508F5E30110E0F8CFCD
:10078000888164E040E050E00E949B020E946B027E
:100790003499FECF80E090E004C0F5013197F1F785
:1007A00001968E159F05C8F31F5F2196181540F31B
:1007B0000F5F091518F4E30110E0F8CFC6010E949D
:1007C000F202DF91CF911F910F91FF90EF90DF9098
:1007D000CF90BF90AF909F908F907F906F90089533
:1007E0001F93CF93DF93182FEB0187E090E00E94D7
:1007F000C00220E040ED57E03FEF1BC015B8349930
:10080000FECF80E090E004C0FA013197F1F7019645
:100810008C179D07C8F335B93499FECF80E090E07E
:1008200004C0FA013197F1F701968C179D07C8F3C0
:100830002F5F211718F387E090E00E94F202DF910A
:10084000CF911F9108951F93CF93DF93182FEB0142
:1008500083E090E00E94C00220E040ED57E03FEFCF
:100860001BC015B83499FECF80E090E004C0FA01B7
:100870003197F1F701968C179D07C8F335B9349974
:10088000FECF80E090E004C0FA013197F1F70196C5
:100890008C179D07C8F32F5F211718F383E090E0B2
:1008A0000E94F202DF91CF911F9108951F93CF9381
:1008B000DF93182FEB0182E090E00E94C00220E05D
:1008C00040ED57E03FEF1BC015B83499FECF80E0F4
:1008D00090E004C0FA013197F1F701968C179D075B
:1008E000C8F335B93499FECF80E090E004C0FA0136
:1008F0003197F1F701968C179D07C8F32F5F2117E9
:1009000018F382E090E00E94F202DF91CF911F91F4
:1009100008951F93CF93DF93182FEB0181E090E0B0
:100920000E94C00220E040ED57E03FEF1BC015B829
:100930003499FECF80E090E004C0FA013197F1F7DE
:1009400001968C179D07C8F335B93499FECF80E026
:1009500090E004C0FA013197F1F701968C179D07DA
:10096000C8F32F5F211718F381E090E00E94F20294
:10097000DF91CF911F910895FF920F931F93CF9313
:10098000DF93F82EEB0187E090E00E94C00260E068
:100990007FEF01E010E0A0EDB7E024C048E050E0B8
:1009A00075B985B1FA01E770F070EC5EFE4F980101
:1009B000008002C0220F331F0A94E2F720952823FB
:1009C00025B93499FECF80E090E004C0FD01319755
:1009D000F1F701968C179D07C8F34150504044230E
:1009E000F9F66F5F6F15D0F287E090E00E94F20297
:1009F000DF91CF911F910F91FF9008950F931F9357
:100A0000CF93DF93182FEB0187E090E00E94C002A4
:100A100030E00FEF61E070E040ED57E01EC005B937
:100A200025B1CB010C9002C0880F991F0A94E2F700
:100A30008095822385B93499FECF80E090E004C090
:100A4000FA013197F1F701968C179D07C8F31196BB
:100A500081E0AC31B80719F73F5F311718F4A4E112
:100A6000B1E0DDCF87E090E00E94F202DF91CF910C
:100A70001F910F910895BF92CF92DF92EF92FF9254
:100A80000F931F93CF93DF937C01EB01B42E890169
:100A90000E94C002209759F0219709F070C050E0E1
:100AA000DD24DA94A1E0B0E0C0EDD7E066C060E0FC
:100AB0007FEFC1E0D0E0B0EDCB2EB7E0DB2E28C059
:100AC00075B985B19E0114960C90149702C0220F3F
:100AD000331F0A94E2F7AE010C9002C0440F551F79
:100AE0000A94E2F7242B2095282325B93499FECFC8
:100AF00080E090E004C0F6013197F1F7019680178D
:100B00009107C8F3119681E0A831B807C9F66F5F65
:100B10006B15A8F5A4E1B1E0D3CF68E070E0D5B8DB
:100B200045B1FB01E770F070EC5EFE4FCD01008037
:100B300002C0880F991F0A94E2F7FB01E05FFE4FA5
:100B40009D01008002C0220F331F0A94E2F7822B1E
:100B50008095842385B93499FECF80E090E004C06D
:100B6000FE013197F1F7019680179107C8F36150A4
:100B700070406430710599F65F5F5B1570F2C701D4
:100B80000E94F202DF91CF911F910F91FF90EF90A1
:100B9000DF90CF90BF900895AF92BF92CF92DF9237
:100BA000EF92FF920F931F93CF93DF93A82ECB0169
:100BB00068E671E00E940D0C382F6CE370E00E9433
:100BC0000D0C162F622F70E08FEF90E0689F600190
:100BD000699FD00C789FD00C1124841B9109869FAB
:100BE000F001879FF00D969FF00D1124249F700156
:100BF000112484EC9FEF189F802D1124830F282F40
:100C000030E0C70168E770E00E940D0C269FA0014C
:100C1000279F500D369F500D1124EA01CE0FDF1F84
:100C2000D601A41BB50B112329F4BA2EDB2ECC2E32
:100C3000ED2E13C0C701969587959C012E0F3F1F7F
:100C4000240F351FB601681B790B641B750B11301F
:100C500039F4B62ED72EC22EE32E0E2FFF2E21C032
:100C6000123039F4BE2EDF2ECA2EEB2E0C2FFD2EA5
:100C700018C0133039F4BE2EDF2EC62EE72E022FF9
:100C8000F32E0FC0143039F0B22ED32ECE2EEF2E0D
:100C9000062FF72E06C0BC2EDD2ECE2EEF2E0A2FED
:100CA000FB2E6091D40181E09EEF70E00E940D0C5C
:100CB000462F172FEA2DF0E09F0128543E4F8B2D31
:100CC0009D2D0E940D0CD9016C939F0120543E4F25
:100CD0008C2D9E2D642F712F0E940D0CD9016C93C9
:100CE000E853FE4F802F9F2D642F712F0E940D0C13
:100CF0006083DF91CF911F910F91FF90EF90DF9074
:100D0000CF90BF90AF900895FF920F931F93CF9312
:100D1000DF93EC01F62E042F10E0812FBE014F2D42
:100D2000202F0E94CC051F5F1830B9F7DF91CF91BB
:100D30001F910F91FF900895CF92DF92EF92FF9253
:100D40000F931F93DF93CF930F92CDB7DEB7009130
:100D5000D6011091D701E82EFF24680190E0892F79
:100D6000B6014FEF2FEF99830E94CC0599819F5FC9
:100D7000CE0CDF1C983099F70F5F1F4F1093D701EF
:100D80000093D6010F90CF91DF911F910F91FF90AB
:100D9000EF90DF90CF900895282F882319F08130AD
:100DA00089F519C0809181008D7F809381008091A9
:100DB000810085608093810080E390E09093D10171
:100DC0008093D0011092D20180E48093D3018FE30D
:100DD0008093D40117C0809181008C7F8093810023
:100DE0008091810084608093810085E390E09093FE
:100DF000D1018093D0012093D20182E08093D3016E
:100E00002093D40180918100877E8093810080911E
:100E100080008C7F80938000789408951F920F92B9
:100E20000FB60F9211242F933F934F935F936F93BD
:100E30007F938F939F93AF93BF93EF93FF93809193
:100E4000D0019091D10180959095909385008093E9
:100E500084008091D201882321F0813009F06DC097
:100E600039C030E0AFEF61E070E02FC040E050E00B
:100E7000A5B98BB18F718BB925B1FA01EC5EFE4F2C
:100E8000CB01008002C0880F991F0A94E2F7809579
:100E9000822385B9FA01E854FE4F8081381708F49F
:100EA0005D9AFA01E054FE4F8081381708F45E9A8B
:100EB000FA01E853FE4F8081381708F45F9A4F5FBC
:100EC0005F4F48305105A1F63F5F8091D40138173C
:100ED00068F233C040E050E03FEFA1E0B0E060E9ED
:100EE00071E035B98BB18F718BB925B1FA01EC5E28
:100EF000FE4FCD01008002C0880F991F0A94E2F7CF
:100F00008095822385B9FA01E854FE4F80818111D2
:100F10005D9AFA01E054FE4F808181115E9AFA01D8
:100F2000E853FE4F808181115F9ACB010197F1F761
:100F30004F5F5F4F48305105A1F68FEF85B9FF91A4
:100F4000EF91BF91AF919F918F917F916F915F9141
:100F50004F913F912F910F900FBE0F901F901895BA
:100F6000CF93DF93C0E0D0E0CE016FEF4FEF0E9450
:100F7000840665E070E080E090E00E94290B2396F3
:100F800081E0C836D80781F7DF91CF9108951F938C
:100F900010E019C080E090E0FC01E854FE4F10839F
:100FA000FC01E054FE4F1083FC01E853FE4F108318
:100FB00001968830910581F765E070E080E090E06F
:100FC0000E94290B1F5F8091D401811718F710919F
:100FD000D40119C080E090E0FC01E854FE4F10837A
:100FE000FC01E054FE4F1083FC01E853FE4F1083D8
:100FF00001968830910581F765E070E080E090E02F
:101000000E94290B11501F3F29F71F910895DF926D
:10101000EF92FF920F931F933499FECF80E00E94CE
:10102000CC0680916F00816080936F008091D00129
:101030009091D10180959095909385008093840044
:101040000E94C7070E94C7070E94C7070E94B007F7
:101050000E94B0070E94B0070E94B00700E010E0B5
:101060008DE20E949C060F5F1F4F83E0083E180729
:10107000B9F700E010E0FF24FA9433C0FC01E85413
:10108000FE4FF082FC01E054FE4FF082FC01E85379
:10109000FE4FF08201968830910581F764E170E09F
:1010A00080E090E00E94290B80E090E0FC01E85491
:1010B000FE4F1082FC01E054FE4F1082FC01E85309
:1010C000FE4F108201968830910581F764E170E04F
:1010D00080E090E00E94290B0F5F1F4F0431110543
:1010E00019F080E090E0CACF80916F008E7F8093EE
:1010F0006F0081E00E94CC0680916F008160809338
:101100006F008091D0019091D1018095909590933E
:1011100085008093840011E01093B8011092C00103
:101120001092C80168EE73E080E090E00E94290B05
:101130001093B9011093C1011092C90168EE73E0D8
:1011400080E090E00E94290B1092BA011093C20136
:101150001092CA0168EE73E080E090E00E94290BD3
:101160001092BB011093C3011093CB0168EE73E0A2
:1011700080E090E00E94290B1092BC011092C40103
:101180001093CC0168EE73E080E090E00E94290BA0
:101190001093BD011092C5011093CD0168EE73E06C
:1011A00080E090E00E94290B1093BE011093C601CD
:1011B0001093CE0168EE73E080E090E00E94290B6E
:1011C0001093BF011093C7011093CF0168E873E13A
:1011D00080E090E00E94290B00E010E0DD24DA942A
:1011E000BAE5EB2EADE2FA2E33C0FC01E854FE4F17
:1011F000D082FC01E054FE4FE082FC01E853FE4F38
:10120000F08201968830910581F764E170E080E01A
:1012100090E00E94290B80E090E0FC01E854FE4F32
:101220001082FC01E054FE4F1082FC01E853FE4F97
:10123000108201968830910581F764E170E080E0CA
:1012400090E00E94290B0F5F1F4F0431110519F028
:1012500080E090E0CACF80916F008E7F80936F0016
:101260003499FECF8AE064E170E00E9489048AE04C
:1012700064E170E00E9456048AE064E170E00E943C
:1012800023048AE064E170E00E94F00384E091E0CE
:1012900068E041E050E021E030E00AE0F0E5EF2EC8
:1012A000F12C0E9480038CE091E068E044E050E083
:1012B00020E030E00E9480038AE064E170E00E9458
:1012C000BC048AE064E170E00E94FE0483E090E0E8
:1012D00060E070E04FE02BE430E00E943B0582E0EC
:1012E00090E061E070E04FE02BE430E00E943B05CD
:1012F00081E090E060E070E04FE02BE430E00E949D
:101300003B0584E090E061E070E04FE02BE430E0EA
:101310000E943B0585E090E060E070E04FE02BE448
:1013200030E00E943B0586E090E061E070E04FE035
:101330002BE430E00E943B0587E090E060E070E045
:101340004FE02BE430E00E943B0584E091E068E050
:1013500041E050E022E030E0E2E3EE2EF12C0E948A
:10136000240384E091E064E041E050E026E030E0D6
:101370007AE0E72EF12C0E94240384E091E068E0FB
:1013800044E050E023E030E00E9424031F910F91DD
:10139000FF90EF90DF900895CF93DF93EC010E94D0
:1013A000C00215B864EF71E080E090E00E94BD0BD0
:1013B00020E030E080ED97E005C0FC013197F1F7C7
:1013C0002F5F3F4F26173707C0F38FEF85B9CE0148
:1013D0000E94F202DF91CF910895FF920F931F9325
:1013E000FF240FC085E08F1508F4FF240F2D10E0B7
:1013F00084E491E00E9465000F541E4FF801808341
:10140000F39484E491E00E945F00882359F781E01F
:101410008093B7011F910F91FF9008951F9384E46B
:1014200091E063E170E00E94CC0084E491E06DEE15
:1014300079E00E94A70011E07DC08091B701813062
:10144000E1F71092B7018091B101843009F43FC0F7
:10145000853040F4813011F1813068F0833009F03B
:101460006BC022C0863009F450C08630B0F18F3F87
:1014700009F062C05DC080E090E0FC01E854FE4FDE
:101480001082FC01E054FE4F1082FC01E853FE4F35
:10149000108201968830910581F74CC08091B2018D
:1014A00090E00E94CC0946C081E00E94CC06809169
:1014B0006F00816080936F008091D0019091D10185
:1014C00080959095909385008093840033C080919F
:1014D0006F008E7F80936F002DC0E091B2018091EC
:1014E000B3019091B3012091B301F0E0DF01A85462
:1014F000BE4F84708C93DF01A054BE4F92709C93BA
:10150000E853FE4F2170208315C080E090E0FC017D
:10151000E854FE4F1083FC01E054FE4F1083FC01A1
:10152000E853FE4F108301968830910581F702C081
:101530001092D5019091D501913009F47ECF1F9181
:10154000089584B18FEF84B985B98AB1806E8AB964
:101550008BB18F718BB987B1837C87B9449A84EB47
:1015600090E00E94DF0B80E00E94CC0680E090E0DB
:10157000FC01E854FE4F1082FC01E054FE4F108243
:10158000FC01E853FE4F108201968830910581F7E7
:10159000089581E08093D5010E940E0A1092BC004C
:1015A0000E94A10A0E94070808951F920F920FB689
:1015B0000F9211242F933F934F935F936F937F93D9
:1015C0008F939F93AF93BF932091DC013091DD0106
:1015D0004091DE015091DF017091E001DA01C90113
:1015E0000296A11DB11D672F6A5F6D3730F06D57F0
:1015F000DA01C9010396A11DB11D6093E00180933A
:10160000DC019093DD01A093DE01B093DF018091B6
:10161000D8019091D901A091DA01B091DB01019636
:10162000A11DB11D8093D8019093D901A093DA0137
:10163000B093DB01BF91AF919F918F917F916F919B
:101640005F914F913F912F910F900FBE0F901F9080
:1016500018959B01AC017FB7F8948091D8019091C7
:10166000D901A091DA01B091DB0166B5A89B05C054
:101670006F3F19F00196A11DB11D7FBFBA2FA92F91
:10168000982F8827860F911DA11DB11D63E0880F3B
:10169000991FAA1FBB1F6A95D1F7BC012DC0FFB7C8
:1016A000F8948091D8019091D901A091DA01B0917C
:1016B000DB01E6B5A89B05C0EF3F19F00196A11D1F
:1016C000B11DFFBFBA2FA92F982F88278E0F911D0C
:1016D000A11DB11DE3E0880F991FAA1FBB1FEA954A
:1016E000D1F7861B970B885E9340C8F2215030409B
:1016F0004040504068517C4F21153105410551054E
:1017000071F60895789484B5826084BD84B5816053
:1017100084BD85B5826085BD85B5816085BDEEE6F9
:10172000F0E0808181608083E1E8F0E010828081D8
:1017300082608083808181608083E0E8F0E0808146
:1017400081608083E1EBF0E0808184608083E0EB66
:10175000F0E0808181608083EAE7F0E0808184604E
:1017600080838081826080838081816080838081AA
:10177000806880831092C1000895EF92FF920F93CA
:101780001F937B018C01611571058105910529F479
:1017900020E030E040E050E00BC00E94B70CA80110
:1017A00097010E94210CAC01CB01DA019C01AD0133
:1017B000B901CA011F910F91FF90EF900895009712
:1017C00029F0BC0180E090E00E94BC0C08950E94CA
:1017D000820B0E94A10A0E94C90AFDCF629FD0011C
:1017E000739FF001829FE00DF11D649FE00DF11DDC
:1017F000929FF00D839FF00D749FF00D659FF00D8B
:101800009927729FB00DE11DF91F639FB00DE11D77
:10181000F91FBD01CF0111240895AA1BBB1B51E183
:1018200007C0AA1FBB1FA617B70710F0A61BB70B50
:10183000881F991F5A95A9F780959095BC01CD01F5
:10184000089597FB092E05260ED057FD04D014D01D
:101850000AD0001C38F450954095309521953F4FA3
:101860004F4F5F4F0895F6F790958095709561956D
:101870007F4F8F4F9F4F0895A1E21A2EAA1BBB1BCB
:10188000FD010DC0AA1FBB1FEE1FFF1FA217B3074C
:10189000E407F50720F0A21BB30BE40BF50B661F62
:1018A000771F881F991F1A9469F760957095809526
:1018B00090959B01AC01BD01CF010895EE0FFF1F74
:1018C0000590F491E02D0994A0E0B0E0EAE6FCE098
:1018D0000C94CD0CEC01A880B980CA80DB80A114E7
:1018E000B104C104D10441F484E2A82E89EDB82EDC
:1018F0008BE5C82E87E0D82EC601B5012DE133EF68
:1019000041E050E00E94210C27EA31E440E050E041
:101910000E94EE0B7B018C01C601B5012DE133EF76
:1019200041E050E00E94210CCA01B9012CEE34EFD5
:101930004FEF5FEF0E94EE0B6E0D7F1D801F911F1A
:1019400097FF04C06150704080409048688379835D
:101950008A839B839B01AC015F77B901CA01CDB734
:10196000DEB7EAE00C94E90C0E94640C089580E074
:1019700091E00E94640C089560930001709301014E
:10198000809302019093030108952F923F924F920A
:101990005F926F927F928F929F92AF92BF92CF92FF
:1019A000DF92EF92FF920F931F93CF93DF93CDB708
:1019B000DEB7CA1BDB0B0FB6F894DEBF0FBECDBF80
:1019C00009942A88398848885F846E847D848C8451
:1019D0009B84AA84B984C884DF80EE80FD800C815A
:1019E0001B81AA81B981CE0FD11D0FB6F894DEBF3D
:0C19F0000FBECDBFED010895F894FFCFAD
:1019FC000100000040A0110A040A11A0C7C6446CE3
:0C1A0C007C6C44C60305040607000102C0
:00000001FF
