:100000000C9434000C9451000C9451000C94510049
:100010000C9451000C9451000C9451000C9451001C
:100020000C9451000C9451000C9451000C94450216
:100030000C9451000C9451000C9451000C945100FC
:100040000C9451070C9451000C9451000C945100E5
:100050000C9451000C9451000C9451000C945100DC
:100060000C9451000C94510011241FBECFEFD4E02A
:10007000DEBFCDBF11E0A0E0B1E0EEECF2E102C0E6
:1000800005900D92AE31B107D9F711E0AEE1B1E0C4
:1000900001C01D92A334B107E1F70E943B080C9404
:1000A00065090C940000CF93DF93E4E1F1E020E0D8
:1000B00030E0A82FB0E041E050E0CD01022E02C0B8
:1000C000959587950A94E2F7608180FF0BC085B112
:1000D000EA0102C0CC0FDD1F6A95E2F79C2F9095D4
:1000E000982308C095B1EA0102C0CC0FDD1F6A95C4
:1000F000E2F79C2B95B92F5F3F4F319628303105A1
:10010000E1F6DF91CF9108954115510529F0413075
:10011000510511F590E01EC090E00DC0282F30E091
:10012000A901559547953695322F22273795279562
:10013000842F822B9F5F961788F30895282F30E035
:10014000A901440F551F220F232F221F330B842F89
:10015000822B9F5F961790F3089583309105E9F005
:10016000843091054CF48130910599F082309105ED
:1001700094F4009709F108958530910599F0853040
:1001800091056CF08630910581F087309105B9F4C6
:100190000FC05E9A08955D9A08955F9A08958BB195
:1001A000806608C08BB1806A05C08BB1806C02C0CC
:1001B0008BB1806E8BB908958BB18F718BB9089517
:1001C00083309105E9F0843091054CF4813091053C
:1001D00099F08230910594F4009709F108958530E3
:1001E000910599F0853091056CF08630910581F08C
:1001F00087309105B9F40FC05E9808955D98089511
:100200005F9808958BB18F7908C08BB18F7505C049
:100210008BB18F7302C08BB18F718BB908958BB185
:10022000806E8BB90895CF92DF92EF92FF920F9379
:100230001F93CF93DF93382FCB0168E671E00E94C4
:100240006908082F6CE370E00E946908162F822F5E
:1002500090E06FEF70E0869FE001879FD00D969F42
:10026000D00D1124641B7109689FF001699FF00D86
:10027000789FF00D1124249F7001112484EC189FA5
:10028000C02C1124C00EDD24C70168E770E00E9475
:100290006908C69EC001C79E900DD69E900D112480
:1002A000DC01AE0FBF1F6E01C81AD90A112329F451
:1002B0004E2F2F2F8D01C6012BC0F694E794BF015E
:1002C0006E0D7F1D680F791FCE19DF09C81BD90B72
:1002D000113029F44E2F2F2F8B01CE0119C012306F
:1002E00021F44A2F2B2F860105C0133029F4462F05
:1002F000272F8E01CF010CC0143031F0CE014C2FCE
:10030000292F8F01CB0104C04C2D2D2D8F01CD0144
:10031000E32FF0E0EF01C25EDE4F68E074E00E9480
:1003200069086883EF01CA5DDE4FC80168E074E0C8
:100330000E9469086883E25DFE4F842F922F68E077
:1003400074E00E9469086083DF91CF911F910F9143
:10035000FF90EF90DF90CF900895FF920F931F933F
:10036000CF93DF93EC01F62E042F10E0812FBE0116
:100370004F2D202F0E9413011F5F1830B9F7DF9116
:10038000CF911F910F91FF900895CF92DF92EF923E
:10039000FF921F93CF93DF93E0903801F0903901E3
:1003A000C82EDD24E70110E0812FBE014FEF2FEFB3
:1003B0000E9413011F5FCC0DDD1D1830A9F70894B2
:1003C000E11CF11CF0923901E0923801DF91CF91EC
:1003D0001F91FF90EF90DF90CF9008952FB7F89482
:1003E000882321F0813009F04EC027C08091810020
:1003F000846080938100809181008C7F8093810054
:10040000809180008C7F8093800080918100886043
:1004100080938100809181008F7E80938100809104
:1004200080008F70809380008AE090E09093890034
:10043000809388001092360126C0909181009A7FA7
:1004400090938100909181009260909381009091AF
:1004500080009C7F909380009091810098609093A1
:100460008100909181009F7E909381009091800007
:100470009F709093800045E350E050938900409333
:100480008800809336012FBF08951F920F920FB6F8
:100490000F9211242F933F934F935F936F938F93FA
:1004A0009F93EF93FF9380913601882321F0813051
:1004B00009F096C063C08FEF85B98BB18F718BB98E
:1004C00045B160913701262F30E0F901EC5EFE4F17
:1004D00081E090E0008002C0880F991F0A94E2F743
:1004E0008095842385B980911C0190911D01F901AB
:1004F000E25EFE4F408150E04823592341155105EB
:1005000009F05E9AF901EA5DFE4F408150E0482310
:1005100059234115510509F05D9A225D3E4FF901BD
:10052000208130E0282339232115310509F05F9A15
:100530009C01220F331F30931D0120931C01203892
:10054000310551F46F5F6093370181E090E0909343
:100550001D0180931C0181E090913701983011F4C6
:100560001092370190E09093890080938800109258
:1005700085001092840082E086BB32C08FEF85B97F
:100580008BB18F718BB955B140913701842F90E0B9
:10059000FC01EC5EFE4F21E030E0008002C0220F43
:1005A000331F0A94E2F72095252325B9FC01E25E6A
:1005B000FE4F208121115E9AFC01EA5DFE4F2081F1
:1005C00021115D9A825D9E4FFC01808181115F9AAD
:1005D000842F8F5F80933701883011F41092370198
:1005E000FF91EF919F918F916F915F914F913F910B
:1005F0002F910F900FBE0F901F901895CF93DF9300
:10060000C0E0D0E0CE016FEF4FEF0E94AD0165E09A
:1006100070E080E090E00E94D107239681E0C83628
:10062000D80781F7DF91CF9108951F9310E01BC089
:10063000FC01E25EFE4F1083FC01EA5DFE4F108379
:10064000FC01E25DFE4F108301968830910581F731
:1006500065E070E080E090E00E94D1071F5F1034F9
:1006600011F41FE31CC080E090E0E2CFFC01E25EE9
:10067000FE4F1083FC01EA5DFE4F1083FC01E25D3A
:10068000FE4F108301968830910581F765E070E098
:1006900080E090E00E94D10711501F3F19F080E0E8
:1006A00090E0E4CF1F91089520E030E008C0EFEC27
:1006B000F7E03197F1F700C000002F5F3F4F281798
:1006C0003907A8F308956F927F928F929F92AF920D
:1006D000BF92CF92DF92EF92FF920F931F93DF931F
:1006E000CF930F92CDB7DEB77C01A62E3A016901F8
:1006F000BB242EC020E04701810E911CC301298339
:100700000E94AD00F40180810E94530082E090E0DD
:100710000E945403C3010E94E000C6010E94AD0084
:10072000F401808164E040E050E00E9484000E9477
:10073000530082E090E00E945403C6010E94E00052
:1007400029812F5F2931D1F61F5F1A1598F2B394D2
:10075000B01610F410E0F9CF0F90CF91DF911F91F8
:100760000F91FF90EF90DF90CF90BF90AF909F9050
:100770008F907F906F9008953C9A449882E090E02B
:100780000E945403449A3C98449A08950E9454034A
:100790000E94BC0308958F929F92AF92BF92CF9216
:1007A000DF92EF92FF920F931F93CF93DF93182F57
:1007B000D92EC62EEA0159014701CA010E94AD0097
:1007C000A114B10431F081E0A816B10469F5FF2449
:1007D00026C0FF240DC0F50181915F010E945300E6
:1007E000C4010E94C6038A2D811B8C15A0F3F394CB
:1007F000F016D0F4A12EBD2CF6CFF50181915F014A
:1008000064E040E050E00E9484000E945300C40174
:100810000E94C6038A2D811B8C1578F3F394F01681
:1008200018F4A12EBD2CF6CFCE010E94E000DF917E
:10083000CF911F910F91FF90EF90DF90CF90BF90DD
:10084000AF909F908F900895DF92EF92FF920F9359
:100850001F93CF93DF93EC01162F7A010E94AD0016
:1008600000E0DD24DA9409C015B8C7010E94C60370
:10087000D5B8C7010E94C6030F5F0117A8F3CE01C8
:100880000E94E000DF91CF911F910F91FF90EF90B8
:10089000DF9008958F929F92AF92BF92CF92DF9296
:1008A000EF92FF920F931F93CF93DF93EC018B0195
:1008B000F42E59010E94AD000115110559F00130C7
:1008C000110509F049C0EE2488248A9441E0C42E21
:1008D000D12C40C000E01FEF31E0832E912C18C0D6
:1008E00015B995B1F6019401019002C0220F331F92
:1008F0000A94E2F76F01822F8095892385B9C5019B
:100900000E94C603FCE1CF16F1E0DF0649F70F5F56
:100910000F1510F524E1C22E21E0D22EE1CF08E020
:1009200010E085B895B1F801E770F070EC5EFE4F0D
:100930009601008002C0220F331F0A94E2F7822F33
:100940008095892385B9C5010E94C60301501040D6
:1009500041F7E394EF1418F3CE010E94E000DF9119
:10096000CF911F910F91FF90EF90DF90CF90BF90AC
:10097000AF909F908F9008959F92AF92BF92CF9229
:10098000DF92EF92FF920F931F93CF93DF93EC01CF
:100990007B01142F69010E94AD00E114F10461F0A4
:1009A00081E0E816F10409F064C000E099249A940B
:1009B000E1E0AE2EB12C5BC000E099249A9471E086
:1009C000A72EB12C20C095B895B1A501F7010480E0
:1009D00002C0440F551F0A94E2F79501019002C02E
:1009E000220F331F0A94E2F77F01842F822B809518
:1009F000892385B9C6010E94C603F8E1EF16F1E02C
:100A0000FF0609F70F5F0117A0F564E1E62E61E02C
:100A1000F62ED9CF58E0E52EF12C95B825B1C701B7
:100A200068E070E00E947D08FC01EC5EFE4FA501CD
:100A3000008002C0440F551F0A94E2F7F701E05FFF
:100A4000FE4FC501008002C0880F991F0A94E2F78B
:100A5000842B8095822385B9C6010E94C603089421
:100A6000E108F10884E0E816F104B9F60F5F011718
:100A700088F2CE010E94E000DF91CF911F910F918B
:100A8000FF90EF90DF90CF90BF90AF909F90089530
:100A9000AF92BF92CF92DF92EF92FF920F931F938C
:100AA000CF93DF9388EE93E00E9454030E94BC032F
:100AB00080E00E94EE019FB7F89480916F00826001
:100AC00080936F009FBFC0E0D0E00E941503219685
:100AD000C330D105D1F7C0E0D0E00E94FE022196DC
:100AE000C430D105D1F7C0E0D0E08DE20E94C5014D
:100AF000219683E0C83ED807C1F7AA24BB241FEF84
:100B00003FC0FC01E25EFE4F1083FC01EA5DFE4F38
:100B10001083FC01E25DFE4F108301968830910541
:100B200081F764E170E080E090E00E94D10780E00E
:100B300090E02EE1C22E21E0D22EFC01EC0DFD1D35
:100B4000108206E2E02E01E0F02EFC01EE0DFF1D0A
:100B50001082CEE2D1E0FC01EC0FFD1F1082019665
:100B60008830910531F764E170E080E090E00E9408
:100B7000D1070894A11CB11CE4E1AE16B10419F030
:100B800080E090E0BECF9FB7F89480916F008D7F9A
:100B900080936F009FBF81E00E94EE019FB7F894A1
:100BA00080916F00826080936F009FBF11E010936F
:100BB0001E011092260110922E0168EE73E080E073
:100BC00090E00E94D107F6011183F7011183198289
:100BD00068EE73E080E090E00E94D107F601128297
:100BE000F70112831A8268EE73E080E090E00E94C1
:100BF000D107F6011382F70113831B8368EE73E0BC
:100C000080E090E00E94D107F6011482F70114827F
:100C10001C8368EE73E080E090E00E94D107F6014B
:100C20001583F70115821D8368EE73E080E090E084
:100C30000E94D107F6011683F70116831E8368EE22
:100C400073E080E090E00E94D107F6011783F7017E
:100C500017831F8368E873E180E090E00E94D1076A
:100C6000C0E0D0E0EE24EA940AE51DE232C0FC01C7
:100C7000E25EFE4FE082FC01EA5DFE4F0083FC0174
:100C8000E25DFE4F108301968830910581F764E1A3
:100C900070E080E090E00E94D10780E090E0FC01ED
:100CA000E25EFE4F1082FC01EA5DFE4F1082FC0105
:100CB000E25DFE4F108201968830910581F764E174
:100CC00070E080E090E00E94D1072196C431D10508
:100CD00019F080E090E0CBCF9FB7F89480916F003F
:100CE0008D7F80936F009FBF84EC99E00E94540336
:100CF0000E94BC0381E090E06AE044E150E00E9481
:100D0000240482E090E06AE044E150E00E94240480
:100D100083E090E06AE044E150E00E94240487E030
:100D200090E06AE044E150E00E94240484E091E015
:100D300068E041E050E020E030E00AE0B0E5EB2E72
:100D4000F12C0E94CB038CE091E068E044E050E09D
:100D500020E030E00E94CB0387E090E060E070E0AC
:100D60004AE024E130E00E944A0487E090E061E03C
:100D700070E04AE024E130E00E944A0483E090E021
:100D800061E070E04FE02BE430E00E94BC0482E0C0
:100D900090E060E070E04FE02BE430E00E94BC04A3
:100DA00081E090E061E070E04FE02BE430E00E94F1
:100DB000BC0484E090E060E070E04FE02BE430E0C1
:100DC0000E94BC0485E090E061E070E04FE02BE41D
:100DD00030E00E94BC0486E090E060E070E04FE00C
:100DE0002BE430E00E94BC0487E090E061E070E01A
:100DF0004FE02BE430E00E94BC0484E091E068E026
:100E000041E050E022E030E0A2E3EA2EF12C0E9423
:100E1000630384E091E064E041E050E026E030E0EC
:100E2000FAE0EF2EF12C0E94630384E091E068E089
:100E300044E050E023E030E00E946303DF91CF9173
:100E40001F910F91FF90EF90DF90CF90BF90AF90E8
:100E5000089584B18FEF84B985B98AB1806E8AB95B
:100E60008BB18F718BB987B1837C87B9449A8BE240
:100E700092E00E94330880E00E94EE0180E090E062
:100E8000FC01E25EFE4F1082FC01EA5DFE4F108223
:100E9000FC01E25DFE4F108201968830910581F7DA
:100EA00008951F920F920FB60F921124EF92FF92A6
:100EB0000F931F932F933F934F935F938F939F9322
:100EC000AF93BF93E0903E01F0903F01009140014D
:100ED0001091410190914201A80197012E5F3F4F6F
:100EE0004F4F5F4F892F8A5F8D3738F08D57A8019C
:100EF00097012D5F3F4F4F4F5F4F809342012093EB
:100F00003E0130933F014093400150934101809155
:100F10003A0190913B01A0913C01B0913D010196B5
:100F2000A11DB11D80933A0190933B01A0933C0118
:100F3000B0933D01BF91AF919F918F915F914F9180
:100F40003F912F911F910F91FF90EF900F900FBE47
:100F50000F901F9018959FB7F89420913A01309107
:100F60003B0140913C0150913D0186B5A89B06C0D4
:100F70008F3F21F02F5F3F4F4F4F5F4F9FBF542F49
:100F8000432F322F2227280F311D411D511D83E091
:100F9000220F331F441F551F8A95D1F7B901CA018B
:100FA0000895EF92FF920F931F93CF93DF937B01EE
:100FB0008C010E94AB07EB010FC00E94AB076C1BBA
:100FC0007D0B83E0683E7807C0F30894E108F108E0
:100FD00001091109C851DC4FE114F10401051105A3
:100FE00061F7DF91CF911F910F91FF90EF900895DE
:100FF000789484B5826084BD84B5816084BD85B5F4
:10100000826085BD85B5816085BDEEE6F0E08081BA
:1010100081608083E1E8F0E01082808182608083DB
:10102000808181608083E0E8F0E08081816080835E
:10103000E1EBF0E0808184608083E0EBF0E0808190
:1010400081608083EAE7F0E0808184608083808132
:1010500082608083808181608083808180688083DA
:101060001092C1000895009729F0BC0180E090E043
:101070000E9425090895CF93DF930E94F8070E94EC
:101080002907C0E0D0E00E9448052097E1F30E94C4
:101090000000F9CF629FD001739FF001829FE00DA5
:1010A000F11D649FE00DF11D929FF00D839FF00DE7
:1010B000749FF00D659FF00D9927729FB00DE11D93
:1010C000F91F639FB00DE11DF91FBD01CF01112470
:1010D0000895AA1BBB1B51E107C0AA1FBB1FA6177F
:1010E000B70710F0A61BB70B881F991F5A95A9F7D1
:1010F00080959095BC01CD01089597FB092E072698
:101100000AD077FD04D0E5DF06D000201AF47095F0
:1011100061957F4F0895F6F7909581959F4F0895BB
:1011200097FB092E05260ED057FD04D014D00AD007
:10113000001C38F450954095309521953F4F4F4F06
:101140005F4F0895F6F790958095709561957F4F64
:101150008F4F9F4F0895A1E21A2EAA1BBB1BFD01C2
:101160000DC0AA1FBB1FEE1FFF1FA217B307E40786
:10117000F50720F0A21BB30BE40BF50B661F771FDE
:10118000881F991F1A9469F76095709580959095BE
:101190009B01AC01BD01CF010895A0E0B0E0E3EDFB
:1011A000F8E00C943609EC01E880F9800A811B8193
:1011B000E114F1040105110541F484E2E82E89ED02
:1011C000F82E8BE5082F87E0182FC801B7012DE115
:1011D00033EF41E050E00E94900827EA31E440E01C
:1011E00050E00E944A085B016C01C801B7012DE183
:1011F00033EF41E050E00E949008CA01B9012CEEA3
:1012000034EF4FEF5FEF0E944A089B01AC012A0DBB
:101210003B1D4C1D5D1D57FF04C021503040404018
:101220005048288339834A835B835F77B901CA01B9
:10123000CDB7DEB7EAE00C9452090E94CD080895BC
:1012400080E091E00E94CD080895609300017093C2
:101250000101809302019093030108952F923F9220
:101260004F925F926F927F928F929F92AF92BF92B6
:10127000CF92DF92EF92FF920F931F93CF93DF9362
:10128000CDB7DEB7CA1BDB0B0FB6F894DEBF0FBEBF
:10129000CDBF09942A88398848885F846E847D840C
:1012A0008C849B84AA84B984C884DF80EE80FD800E
:1012B0000C811B81AA81B981CE0FD11D0FB6F89484
:0E12C000DEBF0FBECDBFED010895F894FFCF45
:1012CE000100000040A0110A040A11A0C7C6446C18
:0E12DE007C6C44C600010203040506070100F3
:103E0000112484B714BE81FFEFD085E08093810038
:103E100082E08093C00088E18093C10086E08093B7
:103E2000C20083E38093C4008EE0C8D0259A86E068
:103E300028E13EEF91E0309385002093840096BB0B
:103E4000B09BFECF1D9AA8958150A9F7882499248C
:103E5000CC24C394B5E0DB2EA1E1EA2EF3E0FF2EE3
:103E6000A1D0813469F49ED08983AED08981823813
:103E700011F0813811F484E001C083E08CD088C057
:103E8000823411F484E103C0853419F485E0A4D0B0
:103E90007FC0853561F486D0082F10E083D090E094
:103EA000982E8824802A912A880C991C70C0863507
:103EB00021F484E091D080E0E1CF843609F041C064
:103EC00071D070D0B82E6ED020E0821628E3920612
:103ED00018F4F401F7BEE89500E011E063D0F801B2
:103EE00081938F01BE16D1F7F0E08F16F8E39F069D
:103EF00018F0F401F7BEE89567D007B600FCFDCFD7
:103F0000C401A0E0B1E04C9150E011962C911197C2
:103F100030E0322F2227242B352B1296FC01090189
:103F2000C7BEE89511240296F1E0A038BF0759F703
:103F3000F401D7BEE89507B600FCFDCFE7BEE895D3
:103F400027C08437B9F42ED02DD0182F2BD03CD0D9
:103F5000012FF4015F010894A11CB11C84911BD0B6
:103F60000150F501B9F70894811C911C1150810E84
:103F7000911C0EC0853739F427D08EE10CD084E92E
:103F80000AD086E07BCF813511F488E017D01CD0B1
:103F900080E101D065CF9091C00095FFFCCF809368
:103FA000C60008958091C00087FFFCCF8091C000BB
:103FB00084FD01C0A8958091C6000895E0E6F0E078
:103FC00098E1908380830895EDDF803219F088E0D6
:103FD000F5DFFFCF84E1DFCF1F93182FE3DF115010
:103FE000E9F7F2DF1F91089580E0E8DFEE27FF2771
:023FF000099432
:023FFE000404B9
:0400000300003E00BB
:00000001FF