:100000000C9434000C9451000C9451000C94510049
:100010000C9451000C9451000C9451000C9451001C
:100020000C9451000C9451000C9451000C9420023B
:100030000C9451000C9451000C9451000C945100FC
:100040000C94C5060C9451000C9451000C94510072
:100050000C9451000C9451000C9451000C945100DC
:100060000C9451000C94510011241FBECFEFD4E02A
:10007000DEBFCDBF11E0A0E0B1E0E6EBF1E102C0F0
:1000800005900D92A631B107D9F711E0A6E1B1E0D4
:1000900001C01D92AA33B107E1F70E94A7070C9493
:1000A000D9080C9400004115510529F04130510543
:1000B00011F590E01EC090E00DC0282F30E0A9019E
:1000C000559547953695322F222737952795842FBA
:1000D000822B9F5F961788F30895282F30E0A9019F
:1000E000440F551F220F232F221F330B842F822BE7
:1000F0009F5F961790F30895382F262FE62FF0E094
:10010000CF01A5E0880F991FAA95E1F790958195F9
:100110009F4F6FE370E00E94F107862F992787FDBC
:1001200090958E0F9F1F97FF02C020E001C0260F01
:10013000E32FF0E0E25EFE4F20830895382F262F54
:10014000E62FF0E0CF01B5E0880F991FBA95E1F7EF
:10015000909581959F4F6FE370E00E94F107862F85
:10016000992787FD90958E0F9F1F97FF02C020E073
:1001700001C0260FE32FF0E0EA5DFE4F20830895D3
:100180001F93DF93CF930F92CDB7DEB7182FE6E121
:10019000F1E0E80FF11D6083642F29830E947C0049
:1001A000812F2981622F0E949E000F90CF91DF91B5
:1001B0001F910895DF92EF92FF920F931F93CF93B9
:1001C000DF93D62EE42EF22EC0E0D0E0082F10E010
:1001D000C8010C2E02C0959587950A94E2F780FF1E
:1001E00005C08C2F6D2D4E2D2F2D04C08C2F60E05F
:1001F00040E020E00E94C0002196C830D10541F7C0
:10020000DF91CF911F910F91FF90EF90DF900895B4
:10021000EF92FF920F931F93E82EF62E042F10E01B
:10022000812F6E2D4F2D202F0E94C0001F5F183090
:10023000B9F71F910F91FF90EF900895CF92DF9241
:10024000EF92FF920F931F93CF93DF93382FCB0141
:1002500068E671E00E94DD07082F6CE370E00E9401
:10026000DD07162F822F90E06FEF70E0869FE00190
:10027000879FD00D969FD00D1124641B7109689F34
:10028000F001699FF00D789FF00D1124249F7001FB
:10029000112484EC189FC02C1124C00EDD24C7014A
:1002A00068E770E00E94DD07C69EC001C79E900D02
:1002B000D69E900D1124DC01AE0FBF1F6E01C81A2F
:1002C000D90A112331F41E2F2F2F0A2F4B2FC601CD
:1002D00031C0F694E794BF016E0D7F1D680F791F42
:1002E000CE19DF09C81BD90B113031F41E2F2F2F67
:1002F000062F472FCE011EC0123029F41A2F2B2FA4
:100300000C2D4D2D07C0133039F4162F272FBE01A9
:100310000C2F472FCF010EC0143039F0CE011C2F07
:10032000292F0E2F4F2FCB0105C01C2D2D2D0E2F49
:100330004F2FCD0168E074E00E94DD07E62F802F8B
:10034000942F68E074E00E94DD07462F812F922FE2
:1003500068E074E00E94DD07262F832F6E2F0E9435
:10036000C000DF91CF911F910F91FF90EF90DF9030
:10037000CF900895FF920F931F93CF93DF93EC01DB
:10038000F62E042F10E0812FBE014F2D202F0E944A
:100390001E011F5F1830B9F7DF91CF911F910F91A8
:1003A000FF900895CF92DF92EF92FF921F93CF9329
:1003B000DF93E0902F01F0903001C82EDD24E7019B
:1003C00010E0812FBE014FEF2FEF0E941E011F5F33
:1003D000CC0DDD1D1830A9F70894E11CF11CF0923A
:1003E0003001E0922F01DF91CF911F91FF90EF90AC
:1003F000DF90CF9008959FB7F894E1E8F0E0808116
:100400008460808380818C7F8083A0E8B0E08C91C1
:100410008C7F8C9380818860808380818F7E8083B5
:100420008C918F708C932AE030E030938900209378
:100430008800EFE6F0E08081826080839FBF0895AE
:100440001F920F920FB60F9211242F933F934F9349
:100450005F936F937F938F939F93AF93CF93DF932C
:10046000EF93FF932E9A90912E01913051F191309C
:1004700020F0923009F06DC048C05C9A5A9A5B989F
:10048000E0911401F091150120E030E080E061E09E
:1004900070E0E901CA5EDE4F488150E04E235F23E1
:1004A0004115510541F0AB01022E02C0440F551F0A
:1004B0000A94E2F7842B2F5F3F4F2830310549F72C
:1004C0004CC05C9A5B9A5A98E0911401F091150126
:1004D00020E030E080E061E070E0E901C25EDE4FE4
:1004E000488150E04E235F234115510541F0AB0197
:1004F000022E02C0440F551F0A94E2F7842B2F5F8F
:100500003F4F2830310549F728C05B9A5A9A5C98CA
:10051000E0911401F091150120E030E080E061E00D
:1005200070E0E901CA5DDE4F488150E04E235F2351
:100530004115510541F0AB01022E02C0440F551F79
:100540000A94E2F7842B2F5F3F4F2830310549F79B
:1005500004C05B985A985C9880E02A988EBD0DB4D0
:1005600007FEFDCF8EB52A9A209114013091150116
:10057000A901440F551F50931501409314014038B1
:10058000510511F0822F0AC09F5F90932E0181E0E8
:1005900090E0909315018093140181E090912E01D9
:1005A000933011F410922E0190E090938900809383
:1005B0008800109285001092840082E086BB2E98FD
:1005C000FF91EF91DF91CF91AF919F918F917F91AB
:1005D0006F915F914F913F912F910F900FBE0F90B0
:1005E0001F9018958CB580658CBD8DB58EB58CB57A
:1005F0008C7F8CBD8DB581608DBD0895CF93DF93C9
:10060000C0E0D0E0CE016FEF4FEF0E94BA0162E090
:1006100070E080E090E00E944507239681E0C836B4
:10062000D80781F7DF91CF9108950F931F9310E0C2
:1006300014C0802F612F412F212F0E94C0000F5F17
:100640000830B9F762E070E080E090E00E94450772
:100650001F5F103411F41FE314C000E0EACF802FB5
:10066000612F412F212F0E94C0000F5F0830B9F782
:1006700062E070E080E090E00E94450711501F3F6B
:1006800011F000E0ECCF1F910F9108954F925F920F
:100690006F927F928F929F92AF92BF92CF92DF9292
:1006A000EF92FF920F931F93DF93CF930F92CDB7EB
:1006B000DEB73C01962E542E422EB02EDE2C00E0EA
:1006C0002CC030E07301E10EF11CF7018081652D33
:1006D000442D2B2D39830E94DA0061E070E080E028
:1006E00090E00E944507F701808164E040E050E01F
:1006F0000E9453006D2D4C2D2A2D0E94DA0061E0DE
:1007000070E080E090E00E94450739813F5F393119
:10071000E1F61F5F1915A8F20F5F081510F410E03D
:10072000F9CF0F90CF91DF911F910F91FF90EF9034
:10073000DF90CF90BF90AF909F908F907F906F9001
:100740005F904F9008952F923F925F926F927F92A9
:100750008F929F92AF92BF92CF92DF92EF92FF92D1
:100760000F931F93CF93DF93182FD92E562E642EFD
:10077000722EE114F10449F021E0E216F104E9F5EA
:10078000FF244501AA24BB2430C0FF244501AA242C
:10079000BB240FC08991662D472D202F0E94DA00BF
:1007A000C501B4010E9445071E01211A251490F3CA
:1007B000F394FC1410F5212FE9011E013D2CE101F9
:1007C000F3CF899164E040E050E00E945300662D31
:1007D000472D202F0E94DA00C501B4010E94450771
:1007E0001E01211A251468F3F394FC1430F4212F10
:1007F000E9011E013D2CE101F3CFDF91CF911F9163
:100800000F91FF90EF90DF90CF90BF90AF909F90AF
:100810008F907F906F905F903F902F9008958F9270
:100820009F92AF92BF92DF92EF92FF920F931F932E
:10083000DF93CF930F92CDB7DEB7D82EE62EF42EEE
:10084000480110E0AA24BB2415C08D2D6E2D4F2D1C
:1008500029830E940801C501B4010E94450780E078
:1008600060E040E00E940801C501B4010E94450714
:100870001F5F2981121748F30F90CF91DF911F91CD
:100880000F91FF90EF90DF90BF90AF909F908F906F
:1008900008957F928F929F92AF92BF92CF92DF92F4
:1008A000EF92FF920F931F93CF93DF93782E862EB4
:1008B000942E2115310561F02130310509F044C035
:1008C00010E021E0A22EB12C6701EE24FF243AC0F3
:1008D00010E091E0A92EB12C6701EE24FF2417C08F
:1008E000C0E0D0E0C5010C2E02C0880F991F0A9409
:1008F000E2F7672D482D292D0E94DA00C701B601C5
:100900000E9445072196C830D10561F71F5F101777
:1009100038F31AC0C8E0D0E0CE018770907095011E
:1009200002C0220F331F8A95E2F7C901672D482DB7
:10093000292D0E94DA00C701B6010E9445072197C0
:1009400059F71F5F101730F380E060E040E00E942D
:100950000801DF91CF911F910F91FF90EF90DF90F1
:10096000CF90BF90AF909F908F907F9008955F92AF
:100970006F927F928F929F92AF92BF92CF92DF92AF
:10098000EF92FF920F931F93CF93DF93582E662E13
:10099000742E2115310561F02130310509F059C05F
:1009A00010E041E0C42ED12C4701AA24BB244FC043
:1009B00010E031E0C32ED12C4701AA24BB2421C072
:1009C000C0E0D0E0CE010496960102C0220F331F92
:1009D0008A95E2F7C90196010C2E02C0220F331F3F
:1009E0000A94E2F7822B652D462D272D0E94DA000E
:1009F000C501B4010E9445072196C430D10511F705
:100A00001F5F1017E8F225C0C4E0D0E0CE010496C5
:100A100068E070E00E94F107960102C0220F331FC8
:100A20008A95E2F7C90196010C2E02C0220F331FEE
:100A30000A94E2F7822B652D462D272D0E94DA00BD
:100A4000C501B4010E944507219701F71F5F1017E8
:100A5000D8F280E060E040E00E940801DF91CF9191
:100A60001F910F91FF90EF90DF90CF90BF90AF90CC
:100A70009F908F907F906F905F9008958F92AF922C
:100A8000BF92CF92EF92FF920F931F93CF93DF937A
:100A9000C0E0D0E00E9415032196C330D105D1F704
:100AA000C0E0D0E00E94FE022196C430D105D1F70B
:100AB000C0E0D0E08DE20E94D201219683E0C83EE2
:100AC000D807C1F7C0E0D0E08FEF6FEF4FEF0E9483
:100AD000080164E170E080E090E00E94450780E05A
:100AE00060E040E00E94080164E170E080E090E096
:100AF0000E9445072196C431D10531F780E06FE3AC
:100B000040E020E00E94C00068EE73E080E090E0EA
:100B10000E94450781E06FE34FE320E00E94C000A0
:100B200068EE73E080E090E00E94450782E060E0BC
:100B30004FE320E00E94C00068EE73E080E090E0A8
:100B40000E94450783E060E04FE32FE30E94C0006E
:100B500068EE73E080E090E00E94450784E060E08A
:100B600040E02FE30E94C00068EE73E080E090E078
:100B70000E94450785E06FE340E02FE30E94C0003C
:100B800068EE73E080E090E00E94450786E06FE346
:100B90004FE32FE30E94C00068EE73E080E090E036
:100BA0000E94450787E06FE34FE32FE30E94C000F8
:100BB00068E873E180E090E00E944507C0E0D0E083
:100BC0008FE36FE34FE30E94080164E170E080E08F
:100BD00090E00E94450780E060E040E00E9408014C
:100BE00064E170E080E090E00E9445072196C43106
:100BF000D10531F78FE360E040E02AE004E110E046
:100C00000E940F0480E06FE340E02AE00E940F049E
:100C100080E060E04FE32AE00E940F048FE36FE37F
:100C20004FE32AE00E940F0484E091E068E04FE384
:100C300020E000E0EE24FF243AE0C32E10E5A12ED0
:100C4000B12C0E94A3038CE091E068E04FE32FE316
:100C50000E94A3038FE36FE34FE320E030E00AE05C
:100C6000B4E1EB2EF12C0E9449048FE36FE34FE3D4
:100C700021E030E00E94490480E060E04FE321E0A1
:100C800030E00FE0ABE4EA2EF12C0E94B70480E0E4
:100C90006FE340E020E030E00E94B7048FE360E0C3
:100CA00040E021E030E00E94B7048FE36FE340E0D2
:100CB00020E030E00E94B70480E06FE34FE321E0E2
:100CC00030E00E94B7048FE360E04FE320E030E0C3
:100CD0000E94B7048FE36FE34FE321E030E00E940E
:100CE000B70400D082E390E0EDB7FEB79283818332
:100CF00084E091E068E04FE320E000E0EE24FFE3D1
:100D0000CF2EAA24EAE08E2E0E944603CAE0D0E04D
:100D1000EDB7FEB7D283C18384E091E064E04FE396
:100D200020E07FE3E72ECC245FE3A52E0E9446035C
:100D3000EDB7FEB7D283C18384E091E068E04FE372
:100D40002FE3EE240E9446030F900F90DF91CF9186
:100D50001F910F91FF90EF90CF90BF90AF908F9029
:100D600008958AB18C618AB984B18C6684B98BE2AA
:100D700092E00E94B6070E94F2020E94FB0180E00E
:100D800060E040E00E94080108951F920F920FB6A4
:100D90000F921124EF92FF920F931F932F933F9383
:100DA0004F935F938F939F93AF93BF93E0903501E1
:100DB000F09036010091370110913801909139017E
:100DC000A80197012E5F3F4F4F4F5F4F892F8A5FDA
:100DD0008D3738F08D57A80197012D5F3F4F4F4F4A
:100DE0005F4F809339012093350130933601409352
:100DF0003701509338018091310190913201A091D7
:100E00003301B09134010196A11DB11D80933101D0
:100E100090933201A0933301B0933401BF91AF910D
:100E20009F918F915F914F913F912F911F910F91C2
:100E3000FF90EF900F900FBE0F901F9018959FB7E7
:100E4000F894209131013091320140913301509159
:100E5000340186B5A89B06C08F3F21F02F5F3F4F1E
:100E60004F4F5F4F9FBF542F432F322F2227280F02
:100E7000311D411D511D83E0220F331F441F551F9B
:100E80008A95D1F7B901CA010895EF92FF920F93A5
:100E90001F93CF93DF937B018C010E941F07EB010F
:100EA0000FC00E941F076C1B7D0B83E0683E780714
:100EB000C0F30894E108F10801091109C851DC4F99
:100EC000E114F1040105110561F7DF91CF911F9144
:100ED0000F91FF90EF900895789484B5826084BD5F
:100EE00084B5816084BD85B5826085BD85B581602E
:100EF00085BDEEE6F0E0808181608083E1E8F0E08E
:100F00001082808182608083808181608083E0E8BC
:100F1000F0E0808181608083E1EBF0E0808184609B
:100F20008083E0EBF0E0808181608083EAE7F0E09D
:100F30008081846080838081826080838081816001
:100F400080838081806880831092C1000895CF9350
:100F5000DF930E946C070E94B106C0E0D0E00E94BF
:100F60003E052097E1F30E940000F9CF009729F099
:100F7000BC0180E090E00E9499080895629FD00132
:100F8000739FF001829FE00DF11D649FE00DF11D44
:100F9000929FF00D839FF00D749FF00D659FF00DF3
:100FA0009927729FB00DE11DF91F639FB00DE11DE0
:100FB000F91FBD01CF0111240895AA1BBB1B51E1EC
:100FC00007C0AA1FBB1FA617B70710F0A61BB70BB9
:100FD000881F991F5A95A9F780959095BC01CD015E
:100FE000089597FB092E07260AD077FD04D0E5DF88
:100FF00006D000201AF4709561957F4F0895F6F79A
:10100000909581959F4F089597FB092E05260ED048
:1010100057FD04D014D00AD0001C38F450954095E8
:10102000309521953F4F4F4F5F4F0895F6F79095BC
:101030008095709561957F4F8F4F9F4F0895A1E2E6
:101040001A2EAA1BBB1BFD010DC0AA1FBB1FEE1F42
:10105000FF1FA217B307E407F50720F0A21BB30B8D
:10106000E40BF50B661F771F881F991F1A9469F709
:1010700060957095809590959B01AC01BD01CF0165
:101080000895A0E0B0E0E7E4F8E00C94AA08EC01D1
:10109000E880F9800A811B81E114F1040105110542
:1010A00041F484E2E82E89EDF82E8BE5082F87E0E5
:1010B000182FC801B7012DE133EF41E050E00E9445
:1010C000040827EA31E440E050E00E94BE075B01DB
:1010D0006C01C801B7012DE133EF41E050E00E94FF
:1010E0000408CA01B9012CEE34EF4FEF5FEF0E9404
:1010F000BE079B01AC012A0D3B1D4C1D5D1D57FF1A
:1011000004C02150304040405048288339834A83EE
:101110005B835F77B901CA01CDB7DEB7EAE00C9413
:10112000C6080E944108089580E091E00E944108AD
:1011300008956093000170930101809302019093E0
:10114000030108952F923F924F925F926F927F9288
:101150008F929F92AF92BF92CF92DF92EF92FF92C7
:101160000F931F93CF93DF93CDB7DEB7CA1BDB0B73
:101170000FB6F894DEBF0FBECDBF09942A88398818
:1011800048885F846E847D848C849B84AA84B9841F
:10119000C884DF80EE80FD800C811B81AA81B9812B
:1011A000CE0FD11D0FB6F894DEBF0FBECDBFED013F
:0611B0000895F894FFCF42
:1011B6000100000040A0110A040A11A0C7C6446C31
:0611C6007C6C44C6010030
:103E0000112484B714BE81FFEFD085E08093810038
:103E100082E08093C00088E18093C10086E08093B7
:103E2000C20088E08093C4008EE0C8D0259A86E066
:103E300028E13EEF91E0309385002093840096BB0B
:103E4000B09BFECF1D9AA8958150A9F7882499248C
:103E5000CC24C394B5E0DB2EA1E1EA2EF3E0FF2EE3
:103E6000A1D0813469F49ED08983AED08981823813
:103E700011F0813811F484E001C083E08CD088C057
:103E8000823411F484E103C0853419F485E0A4D0B0
:103E90007FC0853561F486D0082F10E083D090E094
:103EA000982E8824802A912A880C991C70C0863507
:103EB00021F484E091D080E0E1CF843609F041C064
:103EC00071D070D0B82E6ED020E0821628E3920612
:103ED00018F4F401F7BEE89500E011E063D0F801B2
:103EE00081938F01BE16D1F7F0E08F16F8E39F069D
:103EF00018F0F401F7BEE89567D007B600FCFDCFD7
:103F0000C401A0E0B1E04C9150E011962C911197C2
:103F100030E0322F2227242B352B1296FC01090189
:103F2000C7BEE89511240296F1E0A038BF0759F703
:103F3000F401D7BEE89507B600FCFDCFE7BEE895D3
:103F400027C08437B9F42ED02DD0182F2BD03CD0D9
:103F5000012FF4015F010894A11CB11C84911BD0B6
:103F60000150F501B9F70894811C911C1150810E84
:103F7000911C0EC0853739F427D08EE10CD084E92E
:103F80000AD086E07BCF813511F488E017D01CD0B1
:103F900080E101D065CF9091C00095FFFCCF809368
:103FA000C60008958091C00087FFFCCF8091C000BB
:103FB00084FD01C0A8958091C6000895E0E6F0E078
:103FC00098E1908380830895EDDF803219F088E0D6
:103FD000F5DFFFCF84E1DFCF1F93182FE3DF115010
:103FE000E9F7F2DF1F91089580E0E8DFEE27FF2771
:023FF000099432
:023FFE000404B9
:0400000300003E00BB
:00000001FF