:103E0000112484B714BE81FFEFD085E08093810038
:103E100082E08093C00088E18093C10086E08093B7
:103E2000C20083E38093C4008EE0C8D0259A86E068
:103E300028E13EEF91E0309385002093840096BB0B
:103E4000B09BFECF1D9AA8958150A9F7882499248C
:103E5000CC24C394B5E0DB2EA1E1EA2EF3E0FF2EE3
:103E6000A1D0813469F49ED08983AED08981823813
:103E700011F0813811F484E001C083E08CD088C057
:103E8000823411F484E103C0853419F485E0A4D0B0
:103E90007FC0853561F486D0082F10E083D090E094
:103EA000982E8824802A912A880C991C70C0863507
:103EB00021F484E091D080E0E1CF843609F041C064
:103EC00071D070D0B82E6ED020E0821628E3920612
:103ED00018F4F401F7BEE89500E011E063D0F801B2
:103EE00081938F01BE16D1F7F0E08F16F8E39F069D
:103EF00018F0F401F7BEE89567D007B600FCFDCFD7
:103F0000C401A0E0B1E04C9150E011962C911197C2
:103F100030E0322F2227242B352B1296FC01090189
:103F2000C7BEE89511240296F1E0A038BF0759F703
:103F3000F401D7BEE89507B600FCFDCFE7BEE895D3
:103F400027C08437B9F42ED02DD0182F2BD03CD0D9
:103F5000012FF4015F010894A11CB11C84911BD0B6
:103F60000150F501B9F70894811C911C1150810E84
:103F7000911C0EC0853739F427D08EE10CD084E92E
:103F80000AD086E07BCF813511F488E017D01CD0B1
:103F900080E101D065CF9091C00095FFFCCF809368
:103FA000C60008958091C00087FFFCCF8091C000BB
:103FB00084FD01C0A8958091C6000895E0E6F0E078
:103FC00098E1908380830895EDDF803219F088E0D6
:103FD000F5DFFFCF84E1DFCF1F93182FE3DF115010
:103FE000E9F7F2DF1F91089580E0E8DFEE27FF2771
:023FF000099432
:023FFE000404B9
:0400000300003E00BB
:00000001FF
